:020000040800F2
:1000000020460020290200083D0B0008AD0A000828
:10001000390B0008D5030008BD0C000800000000E3
:10002000000000000000000000000000B10B00080C
:10003000D903000800000000410B0008DD0B000898
:10004000430200084302000843020008430200087C
:10005000430200084302000843020008430200086C
:10006000430200084302000843020008430200085C
:10007000430200084302000843020008430200084C
:10008000430200084302000843020008430200083C
:10009000430200084302000843020008430200082C
:1000A000430200084302000843020008430200081C
:1000B000430200084302000843020008430200080C
:1000C00043020008430200084302000843020008FC
:1000D00043020008430200084302000843020008EC
:1000E00043020008430200084302000843020008DC
:1000F00043020008430200084302000843020008CC
:1001000043020008430200084302000843020008BB
:1001100043020008430200084302000843020008AB
:10012000430200084302000843020008430200089B
:10013000430200084302000843020008430200088B
:10014000430200084302000843020008430200087B
:10015000430200084302000843020008430200086B
:10016000430200084302000843020008430200085B
:100170004302000843020008430200080000000098
:10018000430200084302000800F002F800F03CF8C7
:100190000AA090E8000C82448344AAF10107DA45E2
:1001A00001D100F031F8AFF2090EBAE80F0013F0F8
:1001B000010F18BFFB1A43F001031847001A000093
:1001C000201A0000103A24BF78C878C1FAD8520724
:1001D00024BF30C830C144BF04680C6070470000C1
:1001E0000023002400250026103A28BF78C1FBD840
:1001F000520728BF30C148BF0B6070471FB501F0E0
:10020000C2FC1FBD10B510BD00F0A9F81146FFF7E4
:10021000F5FF00F055FD00F0C7F803B4FFF7F2FF5B
:1002200003BC00F0CFF800000948804709480047A8
:10023000FEE7FEE7FEE7FEE7FEE7FEE7FEE7FEE796
:10024000FEE7FEE704480549054A064B70470000F3
:10025000A90C000889010008204000202046002049
:10026000204200202042002053EA020C00F0698066
:100270002DE9F04B4FF00006002B1FBFB3FA83F5BA
:1002800003FA05F424FA05F65E4012BF1643B2FAEB
:1002900082F502FA05F4C5F120051EBF22FA05FC1D
:1002A00044EA0C04203556EA044C4FEA144418BFC3
:1002B000641C4FF000084FF00009904271EB030CF2
:1002C00039D3002919BFB1FA81F701FA07F6B0FA5C
:1002D00080F700FA07F6C7F120071EBF20FA07FCD7
:1002E00046EA0C062037B6FBF4FCA7EB0507103FE7
:1002F00007F01F0BCBF120062CFA06F60CFA0BFBCD
:1003000044BFB3460026202FA4BF5E464FF0000B2B
:100310005BEA060C08BF4FF0010B19EB0B0948EB29
:100320000608ABFB027C06FB02CC0BFB03CCC01B1C
:1003300071EB0C01C1E70B46024641464846BDE859
:10034000F08B13B5084318BF4FF0FF300146AFF3F1
:100350000080BDE81C407047704770477047754685
:1003600000F02CF8AE4605006946534620F0070021
:10037000854618B020B5FFF765FFBDE820404FF077
:1003800000064FF000074FF000084FF0000BAC469E
:10039000ACE8C009ACE8C009ACE8C009ACE8C009E9
:1003A00021F007018D46704710B50446AFF3008079
:1003B0002046BDE81040FFF730BF000000487047FE
:1003C0001000002001491820ABBEFEE72600020005
:1003D00070470000FEE700007047000043F6C85079
:1003E000C2F200000068704740F2000043F6C851B6
:1003F000C2F20000C2F2000100780A6810440860EE
:100400007047000080B543F60040C4F20200016866
:1004100041F400710160016841F48061016001688C
:1004200041F480710160032000F07AF80F2000F0A1
:1004300005F800F027F8002080BD000070B540F2FC
:100440000006C2F2000640F208013278C2F2000152
:100450004FF47A730968B3FBF2F20446B1FBF2F190
:10046000084600F00DFB0F2C4FF0010508D838B9F5
:100470004FF0FF3021460022002500F025F874607F
:10048000284670BD82B0002043F640010190C4F2BE
:1004900002014A6842F480424A604A6802F480429B
:1004A0000192019A00900868002240F08050086094
:1004B00008680F2100F08050009000986FF0010054
:1004C00002B000F001B8000010B54EF60C5CCEF2A0
:1004D000000CDCF80030C3F3022E8EF00704042C6D
:1004E00028BF0424BEF103034FF0FF3E0EFA04F4CC
:1004F00038BF0023A14399400EFA03F39A431143F6
:1005000000F00F0200F160430901043A03F564436F
:100510006244002848BF02F10C03197010BD0000AE
:100520004EF60C51CEF200010A684FF6FF031A4056
:1005300060F30A2242F0806040F0FD70086070476E
:100540002DE9F041002800F08B8043F60808C4F242
:1005500002080446D8F8F8030D4600F00700884268
:1005600007D288F8F853D8F8F80300F00700A8423B
:1005700076D12068810717D5410705D5D8F8001036
:1005800041F4E051C8F80010010705D5D8F8001073
:1005900041F46041C8F80010D8F80010A26821F0BA
:1005A000F0011143C8F80010C0073FD1D8F8F80394
:1005B00000F00700A84207D988F8F853D8F8F803E4
:1005C00000F00700A8424BD12068410707D5D8F8B2
:1005D0000010E26821F4E0511143C8F80010000750
:1005E00008D5D8F80000216920F4604040EAC10035
:1005F000C8F8000000F054F8D8F8001041F6A03216
:10060000C1F30311C0F60002515C40F2080220FA67
:1006100001F140F20400C2F200000068C2F20002E0
:100620001160FFF70BFF0020BDE8F0816068811EBC
:10063000022907D258F8081C89015CBF0120BDE8D7
:10064000F08111E0012807D158F8081C89035CBF2C
:100650000120BDE8F08107E058F8081C890703D4A1
:100660000120BDE8F08100BFD8F8001021F003019F
:100670000843C8F80000FFF7B1FE064641F288378C
:10068000D8F80000616800F00C00B0EB810F8DD04D
:10069000FFF7A4FE801BB842F2D90320BDE8F08129
:1006A00010B543F60404C4F20204606800F00C00C4
:1006B00008280BD0042819BF42F20040C0F2F40011
:1006C00047F64000C0F27D1010BD00BF20682168D1
:1006D0002368490247F64001C0F27D1100F03F0255
:1006E000C3F388105CBF42F20041C0F2F401A1FBE9
:1006F00000010023FFF7B8FD21680222C1F3014188
:1007000002EB4101B0FBF1F010BD00002DE9F0411A
:1007100082B0002868D00446007843F60006C0077F
:10072000C4F202060BD0B06800F00C00042840F0C0
:100730009F803068800302D56068002854D02078FC
:1007400080071AD5B06810F00C0F09D0B06800F01F
:100750000C00082840F0A6807068400200F1A280DA
:100760003068800702D5E06801283DD130682169F2
:1007700020F0F80040EAC10030602078000737D44C
:10078000207840074CD4A56955B3B06800F00C0040
:10079000082840F0BB80012D26D07068E16900F484
:1007A00080028A4220D1216A00F03F028A421BD196
:1007B00047F6C071626A0140B1EB821F14D1A16A91
:1007C0004FF6FF73C903994300F44032A1F580311D
:1007D0008A4209D1E16A00F07060B0EB016F03D189
:1007E000002002B0BDE8F081012002B0BDE8F08138
:1007F0006069002840F20000C4F2472076D0012151
:10080000C0F8801EFFF7EAFD054600BF706F800745
:10081000B6D4FFF7E3FD401B0228F7D9DDE000BFA7
:10082000306C10F080580AD100200190306C40F0FC
:1008300080503064306C00F080500190019847F295
:100840000007C4F200073868C00541D4386840F496
:1008500080703860FFF7C2FD054600BF3868C005EC
:1008600036D4FFF7BBFD401B0228F7D9B5E000BF27
:10087000B06800F00C00082803D1706840023FF512
:1008800058AF6068B0F5803F07D0B0F5A02F40F0BA
:100890008D80306840F480203060306840F48030D3
:1008A00030608DE0E068002852D00020C4F247207C
:1008B00001210160FFF792FD054600BF3068800707
:1008C0003FF554AFFFF78AFD401B0228F6D984E0BC
:1008D000A068012805D005284ED1306F40F00400F3
:1008E0003067306F40F0010030674FE00021C0F802
:1008F000801EFFF773FD0546706F80077FF540AFE0
:10090000FFF76CFD401B0228F6D966E00027C4F211
:10091000472700203866FFF761FD022D05460BD101
:10092000306880015ED5FFF759FD401B02284FF06B
:100930000300F5D955E700BF306880017FF550AF5F
:10094000FFF74CFD401B02284FF00300F4D948E7A5
:100950000020C4F2472000210160FFF73FFD05465B
:10096000306880077FF509AFFFF738FD401B02288C
:100970004FF00300F4D934E7316F002821F0010172
:100980003167316F21F0040131674DD0FFF726FD4B
:10099000054641F2883700BF306F800756D4FFF715
:1009A0001DFD401BB842F7D917E000BF3168002891
:1009B00021F480313160316821F4802131604FD0E1
:1009C000FFF70CFD054600BF306880033FF5B7AE6A
:1009D000FFF704FD401B6428F6D9032002B0BDE8F0
:1009E000F08100BF04F11C052FCD084340EA8210BE
:1009F000D9034FF6FF729143A1F5803140EA0560BB
:100A00000843706001203866FFF7E8FC044600BF29
:100A1000306880013FF5E4AEFFF7E0FC001B0228E0
:100A20004FF00300F4D9DCE6FFF7D8FC054641F2AD
:100A3000883700BF306F800708D5FFF7CFFC401B19
:100A4000B8424FF00300F5D9CBE600BFB8F1000F74
:100A50007FF499AE306C20F08050306493E600BF94
:100A6000FFF7BCFC054600BF306880037FF567AE2A
:100A7000FFF7B4FC401B64284FF00300F4D9B0E644
:100A8000411E0020B0EB116F1CBF012070474EF2D9
:100A90001002CEF2000251604EF62351CEF2000158
:100AA000F0230B700721906011607047FEE7000093
:100AB00080B588B00B4802AF01900AA000F1040E87
:100AC0009EE80E50806987E80E50079001A800212B
:100AD00000F010F940F23811C2F20001086008B0CD
:100AE00080BD00BFB01B0008D50B0008000000004F
:100AF0000000000080000000000000000000000076
:100B000082B0002043F630010190C4F202010A686D
:100B100042F001020A600A6802F001020192019AA1
:100B20000090086840F080000860086800F08000CD
:100B30000090009802B07047FEE70000FEE700005A
:100B4000EFF30980BFF36F8F154B1A681EF0100F7B
:100B500008BF20ED108A20E9F04F10602DE9090050
:100B60004FF0500080F31188BFF34F8FBFF36F8FAA
:100B700000F082FD4FF0000080F31188BDE809000D
:100B800019680868B0E8F04F1EF0100F08BFB0EC0D
:100B9000108A80F30988BFF36F8F704700BF00BFD2
:100BA00070000020000000000000000000000000B5
:100BB000074B19680868B0E8F04F80F30988BFF365
:100BC0006F8F4FF0000080F31188704700BF00BFA7
:100BD00070000020012000F07FF8FBE780B5FFF7F0
:100BE00003FC00F0C7FE012808BF80BDBDE88040BF
:100BF00000F03CBEB0B592B0002443F64000CDE911
:100C00000A44CDE908440594CDE90344CDE9014403
:100C10000094C4F202000168022541F08051016095
:100C2000006800F080500090009847F200000094A7
:100C3000C4F20000016841F480410160006800F4E2
:100C4000804000900098012006904FF4803007907B
:100C50004FF480000D9019200E904FF4A870CDE94C
:100C60000F050420119006A80C95FFF74FFD28B141
:100C7000EFF3108072B600BFFEE700BF0F20CDE992
:100C800001054FF4A05004904FF48050059001A846
:100C900005210394FFF754FC20B1EFF3108072B6E6
:100CA000FEE700BF12B0B0BD4EF68850CEF2000095
:100CB000016841F47001016070470000FEE7000028
:100CC000FFF7A0FBFFF796FFFFF71AFFFFF7F0FE15
:100CD00000F00AF8FEE7000080B5002808BF0120F8
:100CE00000F00CFC002080BD80B500F057FC002017
:100CF00080BD0000B0B584B043698E4693B184696D
:100D000084B10589D0E9001C026928B2843D18BF6E
:100D1000C51CCDE9005360467346029400F0EEFD19
:100D200004B0B0BD0589D0E90013028A28B2843D21
:100D300018BFC51C03AC184673460095019400F01B
:100D4000ADFD0399012818BF0021084604B0B0BDCD
:100D50002DE9F041044600F011FB40F27006C2F2AA
:100D60000006306940F23C15013030613068C2F253
:100D7000000548B17069002840D13068E16AC06A56
:100D8000884298BF346039E034603069012835D139
:100D9000284600F099FA05F1140000F095FA05F1E3
:100DA000280000F091FA05F13C0000F08DFA05F101
:100DB000500000F089FA05F1640000F085FA05F1B1
:100DC000780000F081FA40F21018C2F200084046A4
:100DD00000F07AFA08F11407384600F075FA06F1C7
:100DE000640000F071FA06F13C0000F06DFA06F1C3
:100DF000500000F069FAC6F8308077637068B16817
:100E000001220131B160E16A8A401043706001EB58
:100E1000810005EB8000211D00F098FA00F0D2FA65
:100E2000706988B13068E16AC06A884228BFBDE84D
:100E3000F0814EF60450CEF200004FF08051016078
:100E4000BFF34F8FBFF36F8FBDE8F08140F27005A5
:100E500040F23C164EF60458C2F20005C2F20006FB
:100E6000CEF200084FF0805703E000BF204600F0AC
:100E7000C1FAE868D0B100F081FAA86CC468201DFE
:100E800000F002FA286901382861E8680138E86052
:100E900000F098FA94F851000228EAD00128E5D031
:100EA00070B9206B00F0A6FAE0E700BF30680228B6
:100EB000DFD3C8F80070BFF34F8FBFF36F8FD8E751
:100EC0004FF0500080F31188BFF36F8FBFF34F8F47
:100ED000FEE700002DE9F047DDE909878246386B1F
:100EE000089C00EB820004389946002920F0070690
:100EF00056D0087887F83400087800284BD0487816
:100F000087F835004878002845D0887887F836007B
:100F1000887800283FD0C87887F83700C878D0B3E1
:100F2000087987F838000879A8B3487987F8390034
:100F3000487980B3887987F83A00887958B3C879B6
:100F400087F83B00C87930B3087A87F83C00087A04
:100F500008B3487A87F83D00487AE0B1887A87F884
:100F60003E00887AB8B1C87A87F83F00C87A90B155
:100F7000087B87F84000087B68B1487B87F8410010
:100F8000487B40B1887B87F84200887B00281CBFE3
:100F9000C87B87F84300002087F8430003E000BFC8
:100FA000002087F834000025381D062C28BF0624B1
:100FB000FC62C7E9114500F093F907F1180000F051
:100FC0008FF984F00700B861304651464A463F61C8
:100FD0007F62FD6487F8505000F042F9B8F1000FCD
:100FE000386018BFC8F80070BDE8F087084800688E
:100FF000006880F308884FF0000080F3148862B620
:1010000061B6BFF34F8FBFF36F8F00DF00BF0000EB
:1010100008ED00E081B00020009040F20C00C2F228
:10102000000000684FF0500181F31188BFF36F8F0B
:10103000BFF34F8F013007D0FEE700BF009830B9F3
:10104000009820B9009810B900980028F6D001B097
:101050007047000070B5044600F006FB40F2E80C53
:10106000C2F2000CDCF8040050B19CF8000000282B
:1010700018BF4FF000404FF0000574BB8DE000BF7B
:1010800040F2C810C2F20000C21D22F0070210F0A8
:101090000701A0EB020318BF104600224FF4705561
:1010A000CCE90602002918BF03F57055411921F05B
:1010B0000701A1F10803CCF8043041E90222191A12
:1010C000C0E9003101208CF800004FF00040CCE96D
:1010D0000211002C4FF000055FD020405DD124F0BC
:1010E000070000F11002600708BF04F10802002A9F
:1010F0004FF0000551D0DCF8080082424DD8604620
:1011000050F818EFDEF8045095422CD2DEF80010AB
:10111000C1B174464D68954218D20B68B3B15D6891
:10112000954217D21868A8B14568954216D204684E
:10113000A4B16568954215D22168A6460029E9D177
:1011400011E000BF0CF118000DE000BF8E462046F4
:1011500009E000BF9E46084605E000BF86461846E7
:1011600001E000BFA646DCF804108E4514D00168EB
:10117000DEF80040AB1A112B04604DD30EEB0205D4
:10118000680719D04FF0500080F31188BFF36F8FBC
:10119000BFF34F8FFEE700BF002500F07FFC68071C
:1011A0005BD04FF0500080F31188BFF36F8FBFF317
:1011B0004F8F00BFFEE700BF0CF118006B60CEF848
:1011C000042000BF0368AB420AD21868A8420BD2C1
:1011D0000368AB4204D218681A46A842F2D304E06E
:1011E0000246184601E000BF1A4653686C68D618DC
:1011F000AE4202D11C44154654602B19834207D1DC
:10120000DCF80430984203D0D0E9000323446B603B
:10121000AA42286018BF156001F10805DEF8040035
:10122000DCE90212091A9142CCF8081038BFCCF858
:101230000C109CF80010002918BF40F00040CEF8B8
:101240000400DCF8100000210130CEF80010CCF8CA
:10125000100000F023FC6807A3D1284670BD0000F1
:10126000034641F21500C0F600004FF0807C21F0EB
:10127000010103E903106FF0020043F8240CA3F10D
:10128000440043F8202C7047D0E9013201699A608C
:10129000D1F804C082688445536008BF4A600022C8
:1012A00002610868013808600868704743F6CC732B
:1012B000C2F20003036043F6CC50C2F200000860A3
:1012C00080201060704700004FF0FF31024642F866
:1012D000081F00214260C0E903220160704700003E
:1012E000002101617047000010B5D1F800E01EF147
:1012F000010213D000F1080462681368734511D825
:1013000053681C68744511D85A68146874450FD81E
:1013100054682368A4467345EED90BE00269D2F8FD
:1013200004C007E09446224604E000BF9C4601E06A
:1013300094461A46C1F804C0CCF808108A6051607F
:10134000086101680131016010BD0000D0F800C0E3
:10135000436808619A684B608A609A689960516036
:101360000CF1010101607047DFF80C00016841F4E5
:10137000700101607047000088ED00E04FF0500000
:1013800080F31188BFF36F8FBFF34F8F40F20C00D3
:10139000C2F2000001684A1C026009B1704700BF38
:1013A0004EF60450CEF200000068000608BF7047F9
:1013B0004FF0500080F31188BFF36F8FBFF34F8F52
:1013C000FEE7000040F20C00C2F20000016839B1F3
:1013D0000139016018BF7047002080F31188704701
:1013E0004FF0500080F31188BFF36F8FBFF34F8F22
:1013F000FEE7000070B5002808BF70BD40F2E805A8
:10140000C2F200050446287854F8041C002818BFCE
:101410004FF0004008420DD0A4F1080632689AB19E
:101420004FF0500080F31188BFF36F8FBFF34F8FE1
:10143000FEE700BF4FF0500080F31188BFF36F8FBD
:10144000BFF34F8FFEE700BF21EA000044F8040C11
:1014500000F00AF954F8041CA8680844A86005F1D3
:10146000180000BF0368B3420AD21868B04225D200
:101470000368B34204D218681A46B042F2D301E0BE
:10148000024618465368D418B44202D1194416468D
:1014900051607318834206D16B68984203D0D0E93B
:1014A000000319447160B242306018BF1660686969
:1014B00001306861BDE8704000F0F0BA1A46536828
:1014C000D418B442E5D1E1E74EF21000CEF20000AC
:1014D00000210160816040F20801C2F20001096848
:1014E00044F6D352C1F26202A1FB02124FF0FF3167
:1014F00001EB9211416007210160704770B500282F
:101500003FD040F27005C2F200050446A86948B118
:101510004FF0500080F31188BFF36F8FBFF34F8FF0
:10152000FEE700BFA8690130A8616E6A2868043030
:10153000FFF7AAFE50B12868A419446013D3686B62
:1015400029680431FFF7D0FE16E000BF28680121AA
:10155000C06A6A6801FA00F022EA00006860286840
:10156000A4194460EBD2286B29680431FFF7BCFE54
:10157000286A844238BF2C6200F090FA002818BF15
:1015800070BD4EF60450CEF200004FF08051016065
:10159000BFF34F8FBFF36F8F70BD0000B0B588B041
:1015A0000020CDE9050006A805A904AAFFF77EFEE4
:1015B0000598B8B3069C002C3ED05421049A07919C
:1015C0000799542942D107992063022084F85100D9
:1015D00007A80025CDE9005040F64D60C0F6000098
:1015E0001FA100230294FFF775FC2046FFF7B0FB14
:1015F000079940F27000C2F20000C16179B14FF06A
:10160000500181F31188BFF36F8FBFF34F8F4FF0FD
:10161000FF31016201214161456200F065F808B0C7
:10162000B0BD00BF4FF0500080F31188BFF36F8F43
:10163000BFF34F8FFEE700BF4FF0500080F31188DB
:10164000BFF36F8FBFF34F8FFEE700BF4FF0500027
:1016500080F31188BFF36F8FBFF34F8FFEE700BF9A
:1016600049444C450000000040F27000C2F2000006
:10167000816901318161704740F27000C2F200005F
:10168000816900291EBF01218162704700218162AA
:101690004168B1FA81F1C9B2C1F11F0140F23C12B7
:1016A00001EB8101C2F2000252F8213063B102EB7A
:1016B000810252F8041F4968131D994211600DD030
:1016C000C9680160704700BF4FF0500080F3118877
:1016D000BFF36F8FBFF34F8FFEE700BF4968116004
:1016E000C968016070470000B0B584B04EF2004C8C
:1016F000CEF2000C4CF27021C4F20F11DCF800297C
:101700004B1C9A420AD14FF0500080F31188BFF36E
:101710006F8FBFF34F8F00BFFEE700BFDCF80029DB
:101720008A4209D14FF0500080F31188BFF36F8FC8
:10173000BFF34F8FFEE700BF9CF800100291FF211E
:101740008CF800109CF800108DF807109DF8071019
:1017500001F0500240F20811C2F200010A700722A3
:101760004A609DF90720B2F1FF3F69DC032200BF08
:10177000D31C4B609DF8070040008DF807009DF9D1
:101780000700B0F1FF3F23DC931C4B609DF807007E
:1017900040008DF807009DF90700B0F1FF3F17DC0E
:1017A000531C4B609DF8070040008DF807009DF921
:1017B0000700B0F1FF3F0BDC4A609DF80700043AD8
:1017C00040008DF807009DF907000028D0D4131DB4
:1017D000032B35D14FF44070486002988CF800001C
:1017E000DCF8200940F47000CCF82009DCF820096E
:1017F00040F07040CCF82009FFF766FE40F20C0480
:10180000C2F2000400252560FFF7AEFD4EF63470ED
:10181000CEF20000016841F040410160FFF7E6FBB5
:10182000FFF72AFF039520684FF0500181F31188DC
:10183000BFF36F8FBFF34F8F013011D0FEE700BFB2
:101840004FF0500080F31188BFF36F8FBFF34F8FBD
:10185000FEE700BF039830B9039820B9039810B988
:1018600003980028F6D0002004B0B0BD80B54FF03A
:10187000500080F31188BFF36F8FBFF34F8F00F0DC
:1018800089F830B14EF60450CEF200004FF080518E
:101890000160002080F3118880BD00002DE9F04335
:1018A00083B007469000984615468946FFF7D2FB5D
:1018B000F8B106465420FFF7CDFBB8B10446DDE988
:1018C0000A100022266384F85120CDE90010384622
:1018D00049462A4643460294FFF7FCFA2046FFF7A2
:1018E00037FA012003B0BDE8F08300BF3046FFF7B0
:1018F00081FD4FF0FF3003B0BDE8F08370B586B0D6
:101900000B9CCCB10C9E0EB354250495049D542D14
:1019100026D1049DDDF828C0022586F8515005AD7A
:101920003463CDE900C50296FFF7D4FA3046FFF7DD
:101930000FFA059806B070BD4FF0500080F3118883
:10194000BFF36F8FBFF34F8FFEE700BF4FF0500024
:1019500080F31188BFF36F8FBFF34F8FFEE700BF97
:101960004FF0500080F31188BFF36F8FBFF34F8F9C
:10197000FEE7000040F27000C2F200004169002959
:101980000FBF01208069B0FA80F0400918BF400005
:10199000704700002DE9F04740F27006C2F20006E1
:1019A000B06928B1F06A0130F0620020BDE8F0872C
:1019B000706A10F1010AC6F824A020D3306B0068C9
:1019C00050B14FF0500080F31188BFF36F8FBFF319
:1019D0004F8F00BFFEE700BF306B716B31637063E8
:1019E000B06B0130B063306B006828B1306BC068F9
:1019F000C068406802E000BF4FF0FF303062306ADC
:101A000040F23C188245C2F2000801D2002434E0C2
:101A1000306B0024006868B34FF0010916E000BF86
:101A2000F86A716809FA00F2114300EB80007160F6
:101A300008EB80002946FFF789FCF86A3168C96A1B
:101A4000326B8842106828BF4C4698B1306BC06832
:101A5000C7683D4655F8040F82450DD32846FFF769
:101A600013FCB86A0028DBD007F11800FFF70CFC64
:101A7000D6E700BF4FF0FF3030623068C06A00EB3D
:101A8000800058F82000012888BF0124B06A00288F
:101A900018BF01242046BDE8F08700002DE9F04181
:101AA00040F27005C2F20005A86968B1FFF766FC54
:101AB000A8690138A861A86980B10024FFF782FCF9
:101AC0002046BDE8F08100BF4FF0500080F3118840
:101AD000BFF36F8FBFF34F8FFEE700BF2869002869
:101AE000EBD0686E78B340F23C180126C2F20008D1
:101AF000286FC76807F11800FFF7C6FB3C1D20469A
:101B0000FFF7C2FBF86A696806FA00F2114300EBBE
:101B10008000696008EB80002146FFF717FCF86A37
:101B20002968C96A884228BFAE62686E0028DFD182
:101B3000286B006820B1286BC068C068406801E06D
:101B40004FF0FF302862EC6A4CB10126FFF722FF0C
:101B5000002818BFAE62013CF8D10020E862A86AF4
:101B60000028AAD04EF60450CEF200004FF080516B
:101B70000160BFF34F8F0124BFF36F8FFFF722FC8B
:101B80002046BDE8F081F1EE100A4FF6FF71C0F279
:101B9000C03120EA010040F04070E1EE100A7047C9
:101BA000000000000000000001020304060708090D
:101BB00064656661756C745461736B00E01B0008AA
:101BC0000000002010000000C4010008F01B000805
:101BD0001000002010460000E00100080000000096
:101BE00001000000100000000024F400AAAAAAAA24
:040000050800018965
:00000001FF
